:020000040800F2
:10000000B04B00206902000871020008730200086A
:10001000750200087702000879020008000000005D
:100020000000000000000000000000007B0200084B
:100030007D020008000000007F0200088102000825
:10004000830200088302000883020008830200087C
:10005000830200088302000883020008830200086C
:10006000830200088302000883020008830200085C
:10007000830200088302000883020008830200084C
:10008000830200088302000883020008830200083C
:10009000830200088302000883020008830200082C
:1000A000830200088302000883020008830200081C
:1000B00083020008E9240008830200088302000884
:1000C00083020008830200088302000883020008FC
:1000D0008302000805270008830200088302000845
:1000E00083020008830200088302000883020008DC
:1000F00083020008830200088302000883020008CC
:100100008302000883020008892500088302000892
:1001100083020008830200088302000883020008AB
:10012000830200088302000883020008830200089B
:10013000830200088302000883020008830200088B
:10014000830200088302000883020008830200087B
:10015000830200088302000883020008830200086B
:10016000830200088302000883020008830200085B
:10017000830200088302000883020008830200084B
:10018000830200088302000800F002F800F05CF827
:100190000AA090E8000C82448344AAF10107DA45E2
:1001A00001D100F051F8AFF2090EBAE80F0013F0D8
:1001B000010F18BFFB1A43F001031847485E000007
:1001C000685E00000A444FF0000C10F8013B13F089
:1001D000070408BF10F8014B1D1108BF10F8015BA0
:1001E000641E05D010F8016B641E01F8016BF9D193
:1001F00013F0080F1EBF10F8014BAD1C0C1B09D1EA
:100200006D1E58BF01F801CBFAD505E014F8016B5B
:1002100001F8016B6D1EF9D59142D6D370470000ED
:100220000023002400250026103A28BF78C1FBD8FF
:10023000520728BF30C148BF0B6070471FB505F09B
:1002400058FC1FBD10B510BD00F063F81146FFF754
:10025000F5FF03F065FA00F081F803B4FFF7F2FF51
:1002600003BC00F089F800000948804709480047AE
:10027000FEE7FEE7FEE7FEE7FEE7FEE7FEE7FEE756
:10028000FEE7FEE704480549054A064B70470000B3
:100290008124000889010008B0450020B04B0020EF
:1002A000B0470020B047002010B5203AC0F00B80C6
:1002B000B1E81850203AA0E81850B1E81850A0E86A
:1002C0001850BFF4F5AF5FEA027C24BFB1E81850C4
:1002D000A0E8185044BF18C918C0BDE810405FEA34
:1002E000827C24BF51F8043B40F8043B08BF7047B0
:1002F000D20728BF31F8023B48BF11F8012B28BFB5
:1003000020F8023B48BF00F8012B70477047704748
:100310007047754600F02CF8AE4605006946534616
:1003200020F00700854618B020B5FFF7ABFFBDE809
:1003300020404FF000064FF000074FF000084FF04C
:10034000000B21F00701AC46ACE8C009ACE8C009DD
:10035000ACE8C009ACE8C0098D46704710B504464A
:10036000AFF300802046BDE81040FFF776BF0000E5
:10037000004870474C45002001491820ABBEFEE7FD
:1003800026000200704700002DE9F04706464FF0B6
:10039000000A00240027A046A1464FF40045A910FA
:1003A0008A4800F0FDFCA910884800F0FBFC00BF63
:1003B0004FF40061864800F0EAFC0128F8D04FF4C1
:1003C0008051834800F0ECFC00242CE04FF0000842
:1003D000C1464FF4004500271DE04FF480517B4893
:1003E00000F0DEFC4FF40071784800F0D0FC0128EA
:1003F00001D148EA05084FF48071744800F0C7FC49
:10040000012801D149EA05094FF480516F4800F0F5
:10041000C9FC6D107F1C102FDFDB26F81480201D17
:1004200026F81090641C042CD0DB4FF480516848EF
:1004300000F0B8FC00BF4FF40041654800F0A7FC95
:100440000128F8D00121634800F0AAFC00242EE026
:100450004FF00008C1464FF4004500271DE04FF45F
:1004600080515A4800F09CFC4FF40071574800F04E
:100470008EFC012801D148EA05084FF480715348E9
:1004800000F085FC012801D149EA05094FF48051AB
:100490004E4800F087FC6D107F1C102FDFDB04F14D
:1004A000080026F81080001D26F81090641C042C0B
:1004B000CEDB0121474800F075FC00BF0221454812
:1004C00000F065FC0128F9D08021404800F068FC6C
:1004D00000242EE04FF00008C1464FF400450027ED
:1004E0001DE04FF48051394800F05AFC4FF4007180
:1004F000364800F04CFC012801D148EA05084FF4C9
:100500008071324800F043FC012801D149EA050915
:100510004FF480512D4800F045FC6D107F1C102FCA
:10052000DFDB04F1100026F81080001D26F8109083
:10053000641C042CCEDB8021244800F033FC00BF77
:100540004FF48061214800F022FC0128F8D04FF4DC
:1005500000611E4800F024FC00242EE04FF000084B
:10056000C1464FF4004500271DE04FF48051174865
:1005700000F016FC4FF40071144800F008FC01284C
:1005800001D148EA05084FF48071104800F0FFFBE4
:10059000012801D149EA05094FF480510B4800F0C8
:1005A00001FC6D107F1C102FDFDB04F1180026F812
:1005B0001080001D26F81090641C042CCEDB4FF434
:1005C0000061024800F0EEFBBDE8F0870010024039
:1005D00000140240001802401CB500240121084606
:1005E00001F096FD0121102001F092FD0121202053
:1005F00001F08EFD0121402001F08AFD012104203F
:1006000001F086FD03208DF8050001208DF804001F
:1006100000208DF8060001208DF8070000030090EF
:100620006946224800F048FB0120009069462048B6
:1006300000F042FB4FF46250009069461D4800F004
:100640003BFB03208DF8050000208DF804000120FD
:100650008DF807004FF4084000906946134800F0F9
:100660002BFB022000906946114800F025FB4FF457
:10067000E060009069460F4800F01EFB4FF4005107
:100680000C4800F08FFB4FF48051084800F08AFBC3
:100690000121074800F086FB8021064800F082FB1C
:1006A0004FF40061034800F07DFB1CBD00140240C4
:1006B00000180240001002402DE9F0412DED088B9A
:1006C0000546EC6904EB44004000801DC0F11E00AB
:1006D000FE4901EB800090ED000A04EB440040006D
:1006E000401DC0F11E0001EB8000D0ED000A30EE8D
:1006F000200ABDEEC00A10EE106A04EB4400400070
:10070000001DC0F11E0001EB800090ED000A04EB1B
:1007100044004000C01CC0F11E0001EB8000D0ED81
:10072000000A30EE200ABDEEC00A10EE107A04EB8B
:1007300044004000801CC0F11E0001EB800090EDE1
:10074000000A04EB44004000401CC0F11E0001EB15
:100750008000D0ED000A30EE200ABDEEC00A10EE97
:10076000108A2E62AF62C5F82480E86BE8B304EB10
:100770004400D74901EB8000406804EB4401D44AAF
:1007800052F82110401A296C711A4843D5E90F120A
:10079000891A90FBF1F004EB4401CD4A52F8211084
:1007A000461804EB4400CB4901EB8000406804EBA1
:1007B0004401C84A52F82110401AA96C791A4843DA
:1007C000D5E91112891A90FBF1F004EB4401C14AFA
:1007D00052F82110471804EB4400BF4901EB800098
:1007E000406804EB4401BC4A00E012E052F82110DA
:1007F000401A296DA8EB01014843D5E91312891A63
:1008000090FBF1F004EB4401B34A52F8211000EBE5
:1008100001082E636F63C5F8388004EB4400AC49CF
:1008200051F82000B04204DD04EB440051F8206090
:100830000CE004EB4400A64901EB80004068B042A4
:1008400004DC04EB440001EB8000466804EB440048
:100850009F4951F82000301A0A2190FBF1F0C4EBB7
:10086000041101EB81019D4A02EB011101EB8000B3
:1008700090ED008A04EB4400954901EB800040684C
:10088000B0423FDD04EB4401914A52F82110711A45
:100890000A2291FBF2F1C8B2C4EB041101EB810111
:1008A0008E4A02EB011101EB8001D1ED000AF1EE5D
:1008B000600AC4EB041101EB810102EB0112411C3F
:1008C00002EB810191ED001A70EE810AB2EE041A7A
:1008D000C0EE811AB0EE610A04EB44017C4A52F882
:1008E0002110711A0A2291FBF2F302FB131100EEA0
:1008F000901AB8EEE01AF0EE480A40EE010AB0EEA7
:10090000608A00BF04EB4400724951F82000B842ED
:1009100004DD04EB440051F820700CE004EB4400CB
:100920006C4901EB80004068B84204DC04EB4400F1
:1009300001EB8000476804EB4400664951F8200051
:10094000381A0A2190FBF1F004EBC401C1EB8411C9
:10095000634A02EB011101EB8000D0ED008A04EB49
:1009600044005C4901EB80004068B8423FDD04EB85
:100970004401584A52F82110791A0A2291FBF2F1E7
:10098000C8B204EBC401C1EB8411554A02EB01115A
:1009900001EB8001D1ED000AF1EE600A04EBC40125
:1009A000C1EB841102EB0112411C02EB810191EDBC
:1009B000001A70EE810AB2EE041AC0EE811AB0EE8F
:1009C000610A04EB4401434A52F82110791A0A22C1
:1009D00091FBF2F302FB131100EE901AB8EEE01A4D
:1009E000F0EE680A40EE010AF0EE608A00BF04EB08
:1009F0004400394951F82000404504DD04EB44002F
:100A000051F820800DE004EB4400334901EB8000F5
:100A10004068404505DC04EB440001EB8000D0F861
:100A2000048004EB44002C4951F82000A8EB00009E
:100A30000A2190FBF1F0C4EBC40101EB8101294ACA
:100A400002EB011101EB800090ED009A04EB4400F1
:100A5000214901EB80004068404550DD04EB440132
:100A60001D4A52F82110A8EB01010A2291FBF2F174
:100A7000C8B2C4EBC40101EB81011A4A02EB0111B7
:100A800001EB8001D1ED000AF1EE600AC4EBC40174
:100A900001EB810102EB0112411C02EB810191ED9E
:100AA000001A70EE810AB2EE041AC0EE811AB0EE9E
:100AB000610A04EB4401084A52F82110A8EB010135
:100AC0000A2291FBF2F302FB13110DE0AC3500207A
:100AD000000100203C01002078010020B40100202A
:100AE00024190020542A002000EE901AB8EEE01AD3
:100AF000F0EE490A40EE010AB0EE609A00BF04EB46
:100B000044004F4901EB800080680A2190FBF1F01E
:100B1000C4EB041101EB81014A4A02EB011101EB24
:100B2000800090ED000A38EE400AB0EE408A04EBF7
:100B30004400454901EB800080680A2190FBF1F0F8
:100B400004EBC401C1EB8411404A02EB011101EB3B
:100B5000800090ED000A38EEC00AF0EE408A04EB07
:100B600044003B4901EB800080680A2190FBF1F0D2
:100B7000C4EBC40101EB8101364A02EB011101EB28
:100B8000800090ED000A39EE400AB0EE409AB0EED7
:100B9000480A05F1600000F063F885ED150AB0EE33
:100BA000680A05F1880000F05BF885ED160AB0EEE2
:100BB000490A05F1B00000F053F885ED170AE8691D
:100BC00020B938EE280A85ED360A34E0E8690128B4
:100BD00017D138EE280A30EE090A10EE101A08462E
:100BE00004F016FF41EC1B0B9FED1B0B53EC102B7D
:100BF00004F0E4FC41EC1A0B04F00EFAC5F8D8003E
:100C000019E0E869022806D138EE280A30EE090A10
:100C100085ED360A0FE0E869032806D138EE280A88
:100C200030EE090A85ED360A05E038EE280A30EE86
:100C3000090A85ED360ABDEC088BBDE8F08100009D
:100C400000010020B40100203C01002024190020F4
:100C500078010020542A0020000000000000F03F2E
:100C6000F0EE400A00219FED130AB0EE401A092170
:100C700009E04A1E00EB820292ED000A00EB8102BD
:100C800082ED000A491E0029F3DCC0ED000A0022B3
:100C900008E000EB820393ED000A30EE010AB0EEAB
:100CA000401A521C0A2AF4DBF2EE041A81EE210AE1
:100CB0007047000000000000F0B50A460021002344
:100CC000002400BF3DE0012505FA01F3156805EA9F
:100CD00003049C4234D105684F000326BE40B5434F
:100CE000056015794E00B5400668354305601579F5
:100CF000012D02D01579022D16D185684F000326EB
:100D0000BE40B543856055794E00B5408668354391
:100D10008560456801268E40B543456045689679F3
:100D20008E40B6B235434560C5684F000326BE40CD
:100D3000B543C560D5794E00B540C6683543C5603A
:100D4000491C1029BFD3F0BDF0B5002300244D0786
:100D5000ED0E02FA05F3CE1000F1200555F82650ED
:100D60004E07F70E0F26BE40B543CF1000F1200608
:100D700046F82750CE1000F1200555F8265045EAD8
:100D80000304CE1000F1200545F82640F0BD0246D0
:100D9000002013690B400BB1012000E000207047D8
:100DA00041837047018370471CB50121102001F079
:100DB000AFF96020009003208DF8050001208DF828
:100DC000040000208DF8060001208DF80700694618
:100DD0000548FFF771FF20210348FFF7E3FF40219B
:100DE0000148FFF7DFFF1CBD000002401CB540209A
:100DF000009003208DF8050000208DF804000120EC
:100E00008DF8070069460248FFF756FF1CBD000039
:100E1000000002401CB54020009003208DF8050022
:100E200001208DF8040000208DF8060001208DF8C7
:100E3000070069460148FFF73FFF1CBD0000024064
:100E400070B504460025FFF7E5FF20211348FFF7A2
:100E5000A7FF00BF1EE004F08000002804DD402151
:100E60000E48FFF79FFF03E040210C48FFF798FF73
:100E70006006040E20210948FFF794FF022002F0CB
:100E800025FB20210548FFF78BFF022002F01EFB07
:100E9000681CC5B2082DDEDB70BD000000000240FA
:100EA00010B5FFF7B7FF40210A48FFF77BFF20216D
:100EB0000848FFF777FF052002F008FB40210548AE
:100EC000FFF76EFF062002F001FB20210148FFF72B
:100ED00067FF10BD0000024010B5FFF79BFF202107
:100EE0000A48FFF75DFF40210848FFF759FF20211E
:100EF0000648FFF757FF062002F0E8FA40210348B2
:100F0000FFF750FF062002F0E1FA10BD000002409A
:100F100010B50024FFF76AFF40211148FFF742FF98
:100F2000012002F0D3FA20210D48FFF73BFF0120FA
:100F300002F0CCFA07E0601CC4B2FA2C03DDFFF724
:100F4000CBFF012010BD40210548FFF720FF0028FE
:100F5000F1D120210248FFF723FF0020F2E7000033
:100F6000000002401CB50121082001F0D1F820202A
:100F7000009001208DF8040003208DF8050000206A
:100F80008DF8060001208DF8070069460148FFF73B
:100F900093FE1CBD000C0240704700001CB50121EF
:100FA000022001F0B5F84FF47E70009001208DF81A
:100FB000040003208DF8050000208DF806000120B4
:100FC0008DF8070069464E48FFF776FE0121402064
:100FD00001F09EF84FF47850009001208DF8040045
:100FE00003208DF8050000208DF8060001208DF803
:100FF000070069464348FFF75FFE0121082001F022
:1010000087F8C020009001208DF8040003208DF89F
:10101000050000208DF8060001208DF807006946C4
:101020003948FFF749FE0121082001F071F83C2002
:10103000009001208DF8040003208DF805000120A8
:101040008DF8060000208DF8070069462E48FFF74E
:1010500033FE0121042001F05BF8102000900120F4
:101060008DF8040003208DF8050000208DF806009F
:1010700001208DF8070069462448FFF71DFE4FF454
:1010800000711F48FFF78EFE40211F48FFF78AFEC0
:1010900080211D48FFF786FE4FF400711948FFF7C5
:1010A00081FE4FF480611748FFF77CFE4FF400612A
:1010B0001448FFF777FE4FF480511248FFF772FE95
:1010C0004FF400510F48FFF76DFE08210C48FFF761
:1010D00069FE10210A48FFF765FE20210848FFF746
:1010E00061FE40210648FFF75DFE80210448FFF7BE
:1010F00059FE4FF480710248FFF754FE1CBD0000FA
:101100000004024000180240000C024000080240A7
:1011100010B5322468480068401C674908600846DA
:101120000068B0F5C87F74D012DCC82843D006DC54
:10113000322823D064282BD0962869D131E0FA28B0
:1011400044D0B0F5967F4CD0B0F5AF7FF5D153E0E9
:10115000B0F5167F70D00ADCB0F5E17F63D0B0F552
:10116000FA7F6BD0A0F226200028E6D16FE0A0F233
:101170008A2000287ED03228DFD185E040214F48E8
:10118000FFF70EFE4FF400714D48FFF70BFE87E0AE
:1011900080214A48FFF704FE40214848FFF702FE3D
:1011A0007EE04FF400714748FFF7FAFD8021434885
:1011B000FFF7F8FD74E04FF480614248FFF7F0FD5F
:1011C0004FF400713F48FFF7EDFD69E04FF4006117
:1011D0003C48FFF7E5FD4FF480613A48FFF7E2FD38
:1011E0005EE04FF480513748FFF7DAFD4FF40061BD
:1011F0003448FFF7D7FD53E04FF400513148FFF773
:10120000CFFD4FF480512F48FFF7CCFD48E000E0C0
:1012100045E008212A48FFF7C3FD4FF40051294853
:10122000FFF7C0FD3CE010212548FFF7B9FD08217C
:101230002348FFF7B7FD33E013E0FFE72021204804
:10124000FFF7AEFD10211E48FFF7ACFD28E040215E
:101250001B48FFF7A5FD20211948FFF7A3FD1FE05C
:1012600008E080211648FFF79BFD40211448FFF756
:1012700099FD15E04FF480711148FFF791FD802131
:101280000F48FFF78FFD0BE04FF400710C48FFF79C
:1012900087FD4FF480710A48FFF784FD00E000BF2E
:1012A00000BF0548006840F2EE21884202D10020CC
:1012B0000149086010BD00008C000020000C0240B5
:1012C000000402400018024010B52DED068B0446C4
:1012D0009FED8F0AF0EE408A94ED010A8D48D0ED23
:1012E000000A30EEC00AB0EE408A94ED030AFFEE29
:1012F000000AB4EE600AF1EE10FA02D1BDEC068BE2
:1013000010BD9FED830AB4EEC08AF1EE10FA40D210
:10131000002084F8380084ED068A206890ED3E0AAB
:1013200084ED0A0A206890ED410A84ED0B0A2068DA
:1013300090ED400A84ED0C0A206890ED430A84ED9C
:101340000D0A206890ED360A84ED080A206890EDB9
:10135000370A84ED070A206890ED360AD4ED030AB7
:10136000B4EEE00AF1EE10FA09DD206890ED370ADC
:1013700084ED090A9FED680A84ED0F0A3FE02068BA
:1013800090ED370A84ED090AB7EE000A84ED0F0AE2
:1013900035E0206890ED370AD4ED030A30EE600A9C
:1013A00010EE101A084604F033FB41EC1A0BB0EEB5
:1013B0004A0AF0EE6A0A01F097FBB0EE409AF0EEAE
:1013C000609A9FED560B53EC102B51EC190B04F067
:1013D000F3F914D294ED030AD4ED090A30EE600A51
:1013E00094ED041AC0EE010A94ED060A38EE401A94
:1013F00094ED090A00EE810A206880ED370A9FED1E
:10140000440AB4EEC08AF1EE10FA65DD94F83800B3
:10141000002861D194ED030AB5EEC00AF1EE10FA8E
:101420005AD0207D012857D12168487094ED0F0AC9
:10143000B5EEC00AF1EE10FA06D100202168087658
:1014400001202168487605E0012021680876002007
:1014500021684876206890ED360AD4ED080A30EE0F
:10146000600A10EE101A084604F0D2FA41EC1A0B8A
:10147000B0EE4A0AF0EE6A0A01F036FBB0EE409A8E
:10148000F0EE609A9FED270B53EC102B51EC190BEB
:1014900004F092F939D2206890ED380A10EE101A53
:1014A000084604F0B5FA41EC1A0BB0EE4A0AF0EE29
:1014B0006A0A01F019FBB0EE409AF0EE609A9FEDD7
:1014C0001B0B53EC102B51EC190B04F03BF81CD206
:1014D000012084F8380018E09FED0D0AB4EEC08AB0
:1014E000F1EE10FA11DD012021684870002021681A
:1014F00008762168487694ED0A0A206880ED3E0A55
:1015000094ED0B0A206880ED410A00BFF6E600006A
:10151000CDCC4C3E9400002000000000000000A054
:101520009999C93F00000000000008400000000039
:101530000000244070B5002100230F22C4781CB3A2
:10154000174C246804F4E064C4F5E064C4F3072194
:10155000C1F10404E3B20A4144789C40E1B28478CA
:10156000144021430C07210E0E4C05786155047878
:1015700004F01F050124AC4005786D11AD0005F1A4
:10158000E025C5F8004109E0047804F01F050124B6
:10159000AC40054D0678761145F8264070BD000038
:1015A0000CED00E000E400E080E100E002490143CE
:1015B000024A1160704700000000FA050CED00E0DF
:1015C00090ED360AD0ED370A30EE600A80ED380A29
:1015D00090ED3D0AD0ED380A30EE200A80ED3D0A4C
:1015E000D0ED3E0AB2EE041A80EE810AD0ED380A40
:1015F00020EE200A90ED3F1ADFED411AC1EE210ADC
:1016000090ED3D1A00EE810A90ED401ADFED3C1A94
:10161000C1EE210A90ED391AD0ED381A31EE611A77
:1016200000EE810A80ED450A90ED410AB2EE041AFF
:10163000C0EE010A90ED380A20EE800A90ED421AC1
:10164000DFED2F1AC1EE210A90ED3D1A00EE810A5E
:1016500090ED431ADFED2A1AC1EE210A90ED391AF6
:10166000D0ED381A31EE611A00EE810A80ED440A9D
:1016700090ED380A80ED390A90ED450AF7EE000A40
:10168000B4EEE00AF1EE10FA0CDB90ED3D0AD0ED7D
:10169000380A30EE600A80ED3D0AB7EE000A80EDB0
:1016A000450A0AE090ED450AB5EEC00AF1EE10FADF
:1016B00003D89FED140A80ED450A90ED440AF7EE39
:1016C000000AB4EEE00AF1EE10FA0CDB90ED3D0AF0
:1016D000D0ED380A30EE600A80ED3D0AB7EE000A20
:1016E00080ED440A0AE090ED440AB5EEC00AF1EE3E
:1016F00010FA03D89FED030A80ED440A70470000FA
:1017000000007A44000000002DE9F84304460D462D
:1017100016461F46DDF82080DA48C07866287CD15E
:10172000D848007900EE100AB8EE400AFFEE000A31
:1017300020EE200ADFEDD40A80EE201A84ED3E1A56
:10174000D048407900EE100AB8EE400AFFEE000AD9
:1017500020EE200ADFEDCC0A80EE201A84ED3F1A3D
:10176000C848807900EE100AB8EE400AFFEE000A81
:1017700020EE200ADFEDC40A80EE201A84ED401A24
:10178000C048C07900EE100AB8EE400ADFEDBE0A8C
:1017900080EE201A84ED411ABA48007A00EE100A51
:1017A000B8EE400ADFEDB80A80EE201A84ED421A46
:1017B000B448407A00EE100AB8EE400ADFEDB20AF3
:1017C00080EE201A84ED431AAE48807A00EE100AAB
:1017D000B8EE400AFFEE000A20EE200ADFEDAA0A6A
:1017E00080EE201A85ED3E1AA648C07A00EE100A57
:1017F000B8EE400AFFEE000A20EE200ADFEDA20A52
:1018000080EE201A85ED3F1A9E48007B00EE100AFC
:10181000B8EE400AFFEE000A00E031E120EE200AB7
:10182000DFED990A80EE201A85ED401A9548407B3D
:1018300000EE100AB8EE400ADFED930A80EE201A9F
:1018400085ED411A8F48807B00EE100AB8EE400A01
:10185000DFED8D0A80EE201A85ED421A8948C07BA3
:1018600000EE100AB8EE400ADFED870A80EE201A7B
:1018700085ED431A8348007C00EE100AB8EE400A5A
:10188000FFEE000A20EE200ADFED7F0A80EE201A2C
:1018900086ED3E1A7B48407C00EE100AB8EE400A06
:1018A000FFEE000A20EE200ADFED770A80EE201A14
:1018B00086ED3F1A7348807C00EE100AB8EE400AAD
:1018C000FFEE000A20EE200ADFED6F0A80EE201AFC
:1018D00086ED401A6B48C07C00EE100AB8EE400A54
:1018E000DFED690A80EE201A86ED411A6548007D19
:1018F00000EE100AB8EE400ADFED630A80EE201A0F
:1019000086ED421A5F48407D00EE100AB8EE400AAC
:10191000DFED5D0A80EE201A86ED431A5948807D7E
:1019200000EE100AB8EE400AFFEE000A20EE200A90
:10193000DFED550A80EE201A87ED3E1A5148C07D32
:1019400000EE100AB8EE400AFFEE000A20EE200A70
:10195000DFED4D0A80EE201A87ED3F1A4948007EE0
:1019600000EE100AB8EE400AFFEE000A20EE200A50
:10197000DFED450A80EE201A87ED401A4148407E8F
:1019800000EE100AB8EE400ADFED3F0A80EE201AA2
:1019900087ED411A3B48807E00EE100AB8EE400AFF
:1019A000DFED390A80EE201A87ED421A3548C07EF5
:1019B00000EE100AB8EE400ADFED330A80EE201A7E
:1019C00087ED431A2F48007F00EE100AB8EE400A58
:1019D000FFEE000A20EE200ADFED2B0A80EE201A2F
:1019E00088ED3E1A2748407F00EE100AB8EE400A04
:1019F000FFEE000A20EE200ADFED230A80EE201A17
:101A000088ED3F1A1F48807F00EE100AB8EE400AAA
:101A1000FFEE000A20EE200ADFED1B0A80EE201AFE
:101A200088ED401A1748C07F00EE100AB8EE400A51
:101A3000DFED150A80EE201A88ED411A114890F862
:101A4000200000EE100AB8EE400ADFED0F0A80EE2B
:101A5000201A88ED421A0B4890F8210000EE100A77
:101A6000B8EE400ADFED080A80EE201A88ED431A2E
:101A70003B46324629462046CDF8008000F006F865
:101A8000BDE8F883443500200000C8422DE9F04746
:101A900004460D4616461F46DDF820804FF000092B
:101AA00001214AF6AA2000F0D7FB0121862000F090
:101AB000D3FB94ED3E0AFFEE000A20EE200ADFED94
:101AC000FE0A20EE200ABCEEC00A10EE101A88B200
:101AD000012100F0C1FB94ED3F0AFFEE000A20EE69
:101AE000200ADFEDF50A20EE200ABCEEC00A10EE57
:101AF000101A88B2012100F0AFFB94ED400AFFEE0E
:101B0000000A20EE200ADFEDEC0A20EE200ABCEEEF
:101B1000C00A10EE101A88B2012100F09DFB94ED6E
:101B2000410ADFEDE50A20EE200ABCEEC00A10EE05
:101B3000101A88B2012100F08FFB94ED420ADFED0C
:101B4000DE0A20EE200ABCEEC00A10EE101A88B29F
:101B5000012100F081FB94ED430ADFEDD70A20EE6E
:101B6000200ABCEEC00A10EE101A88B2012100F063
:101B700073FB95ED3E0AFFEE000A20EE200ADFED32
:101B8000CE0A20EE200ABCEEC00A10EE101A88B26F
:101B9000012100F061FB95ED3F0AFFEE000A20EE07
:101BA000200ADFEDC50A20EE200ABCEEC00A10EEC6
:101BB000101A88B2012100F04FFB95ED400AFFEEAC
:101BC000000A20EE200ADFEDBC0A20EE200ABCEE5F
:101BD000C00A10EE101A88B2012100F03DFB95ED0D
:101BE000410ADFEDB50A20EE200ABCEEC00A10EE75
:101BF000101A88B2012100F02FFB95ED420ADFEDAB
:101C0000AE0A20EE200ABCEEC00A10EE101A88B20E
:101C1000012100F021FB95ED430ADFEDA70A20EE3C
:101C2000200ABCEEC00A10EE101A88B2012100F0A2
:101C300013FB96ED3E0AFFEE000A20EE200ADFEDD0
:101C40009E0A20EE200ABCEEC00A10EE101A88B2DE
:101C5000012100F001FB96ED3F0AFFEE000A20EEA5
:101C6000200ADFED950A20EE200ABCEEC00A10EE35
:101C7000101A88B2012100F0EFFA96ED400AFFEE4B
:101C8000000A20EE200ADFED8C0A20EE200ABCEECE
:101C9000C00A10EE101A88B2012100F0DDFA96EDAC
:101CA000410ADFED850A20EE200ABCEEC00A10EEE4
:101CB000101A88B2012100F0CFFA96ED420ADFED4A
:101CC0007E0A20EE200ABCEEC00A10EE101A88B27E
:101CD000012100F0C1FA96ED430ADFED770A20EE0C
:101CE000200ABCEEC00A10EE101A88B2012100F0E2
:101CF000B3FA97ED3E0AFFEE000A20EE200ADFED70
:101D00006E0A20EE200ABCEEC00A10EE101A88B24D
:101D1000012100F0A1FA97ED3F0AFFEE000A20EE44
:101D2000200ADFED650A20EE200ABCEEC00A10EEA4
:101D3000101A88B2012100F08FFA97ED400AFFEEE9
:101D4000000A20EE200ADFED5C0A20EE200ABCEE3D
:101D5000C00A10EE101A88B2012100F07DFA97ED4A
:101D6000410ADFED550A20EE200ABCEEC00A10EE53
:101D7000101A88B2012100F06FFA97ED420ADFEDE8
:101D80004E0A20EE200ABCEEC00A10EE101A88B2ED
:101D9000012100F061FA97ED430ADFED470A20EEDA
:101DA000200ABCEEC00A10EE101A88B2012100F021
:101DB00053FA98ED3E0AFFEE000A20EE200ADFED0E
:101DC0003E0A20EE200ABCEEC00A10EE101A88B2BD
:101DD000012100F041FA98ED3F0AFFEE000A20EEE3
:101DE000200ADFED350A20EE200ABCEEC00A10EE14
:101DF000101A88B2012100F02FFA98ED400AFFEE88
:101E0000000A20EE200ADFED2C0A20EE200ABCEEAC
:101E1000C00A10EE101A88B2012100F01DFA98EDE8
:101E2000410ADFED250A20EE200ABCEEC00A10EEC2
:101E3000101A88B2012100F00FFA98ED420ADFED86
:101E40001E0A20EE200ABCEEC00A10EE101A88B25C
:101E5000012100F001FA98ED430ADFED170A20EEA8
:101E6000200ABCEEC00A10EE101A88B2012100F060
:101E7000F3F900BF04E0002000F018FA09F10109AD
:101E8000B9F1440FF7DB0D210C4800F08CFD00BFC9
:101E900080210A4800F0BBFC0028F9D00A2107483D
:101EA00000F081FD00BF8021044800F0B0FC002854
:101EB000F9D0BDE8F08700000000C84200100140E2
:101EC0002DE9F04104460D4616461F46DDF8188000
:101ED00094ED450ADFED4A0A20EE200ABCEEC00A66
:101EE00010EE100A82B20D21802002F027FC94ED42
:101EF000440ADFED430A20EE200ABCEEC00A10EED1
:101F0000100A82B20E21802002F018FC95ED450ADD
:101F1000DFED3B0A20EE200ABCEEC00A10EE100AEC
:101F200082B20B21802002F009FC95ED440ADFED1E
:101F3000340A20EE200ABCEEC00A10EE100A82B26B
:101F40000C21802002F0FAFB96ED450ADFED2C0A09
:101F500020EE200ABCEEC00A10EE100A82B2042164
:101F6000802002F0EBFB96ED440ADFED250A20EE1F
:101F7000200ABCEEC00A10EE100A82B20A218020AC
:101F800002F0DCFB97ED450ADFED1D0A20EE200A8A
:101F9000BCEEC00A10EE100A82B20221802002F0CC
:101FA000CDFB97ED440ADFED160A20EE200ABCEEC9
:101FB000C00A10EE100A82B20321802002F0BEFB9C
:101FC00098ED450ADFED0E0A20EE200ABCEEC00AAD
:101FD00010EE100A82B20021802002F0AFFB98EDD3
:101FE000440ADFED070A20EE200ABCEEC00A10EE1C
:101FF000100A82B20121802002F0A0FBBDE8F0812E
:1020000000F07F4570B505460C46FEF749FF2846AF
:10201000FEF716FFFEF77CFF0020FEF711FFFEF72C
:1020200077FF1020FEF70CFFFEF772FFFEF738FF78
:102030002846FEF705FFFEF76BFFFE20FEF700FFC8
:10204000FEF766FF2046FEF7FBFEFEF761FFFEF798
:1020500027FF2846FEF7F4FEFEF75AFF0020FEF7A2
:10206000EFFEFEF755FF2020FEF7EAFEFEF750FFD9
:10207000FEF732FF70BD000070B52DED068B0446F3
:10208000200303F034FA41EC1A0B9FED1B0B53ECC9
:10209000102B03F093FA41EC190B53EC192B9FED25
:1020A000180B51EC100B03F09DF841EC180B02F0EB
:1020B000B3FF0546284603F0ABFC41EC1A0B9FED3D
:1020C000120B53EC102B02F0D9FF41EC190BB0EEC0
:1020D000490AF0EE690A00F013FDB0EE408AF0EE16
:1020E000608A51EC180B03F0D5F9401EC6B2304699
:1020F000BDEC068B70BD0000B81E85EB51B8EE3FFD
:102100000000000084D77741000000000000E03F9D
:1021100029B1064A12680243044B1A6004E0034ADC
:1021200012688243014B1A60704700003038024049
:1021300029B1064A12680243044B1A6004E0034ABC
:1021400012688243014B1A60704700004038024019
:1021500029B1064A12680243044B1A6004E0034A9C
:1021600012688243014B1A607047000044380240F5
:10217000F0B5002100220024022500260223324F60
:102180003F6807F00C0121B1042905D0082937D197
:1021900005E02E4F076036E02D4F076033E02A4FF1
:1021A0003F1F3F68C7F38056274F3F1F3F6807F028
:1021B0003F036EB1264FB7FBF3F7DFF88CC0ACF1ED
:1021C000040CDCF800C0CCF3881C07FB0CF40CE01A
:1021D0001E4FB7FBF3F7DFF870C0ACF1040CDCF86E
:1021E00000C0CCF3881C07FB0CF4174F3F1F3F685F
:1021F000C7F301477F1C7D00B4FBF5F7076002E0E1
:10220000124F076000BF00BF0F4F3F6807F0F0019B
:102210000909104F7A5C0768D74047600A4F3F684A
:1022200007F4E051890A0B4F7A5C4768D740876012
:10223000054F3F6807F46041490B064F7A5C4768D9
:10224000D740C760F0BD0000083802400024F40009
:1022500000127A0078000020F8B504460E460020EF
:1022600000900025012E06D1E0B28DF80000200A72
:102270008DF8010005E0200A8DF80000E0B28DF82D
:10228000010000250DE01DF80510074800F08BFB4C
:1022900000BF8021044800F0BAFA0028F9D0681C79
:1022A000C5B2022DEFDBF8BD0010014010B50446A9
:1022B0002146054800F077FB00BF8021024800F06E
:1022C000A6FA0028F9D010BD001001402DE9F04712
:1022D0002DED068B80460D4616461F46DDF83890DC
:1022E00000241E48FEF750F81C49488F03F016F9E9
:1022F00041EC1A0B53EC1A2B9FED190B51EC100B00
:1023000002F070FF41EC190B02F086FE08EE100A95
:1023100000BF0EE0114830F8140000EE100AB8EECD
:10232000400A20EE080A104800EB840080ED000A05
:10233000641C202CEEDB4046FEF7BEF92846FEF773
:10234000BBF93046FEF7B8F93846FEF7B5F948460E
:10235000FEF7B2F9BDEC068BBDE8F0876C350020C6
:10236000000000000088B340AC3500200CB5002010
:10237000019000903448006840F480303249086091
:1023800000BF3148006800F4003000900198401C04
:102390000190009818B90198B0F5A04FF1D12A48E2
:1023A000006800F4003010B10120009001E000202E
:1023B00000900098012846D123484030006840F042
:1023C00080502149403108602048006840F4404076
:1023D0001E4908601C48083000681B490831086025
:1023E0000846006840F4004008600846006840F471
:1023F000A05008601648091F0860081F006840F0D8
:102400008070091F086000BF0F48006800F000706E
:102410000028F9D040F205700E4908600A480830DB
:10242000006820F003000849083108600846006889
:1024300040F00200086000BF03480830006800F068
:102440000C000828F8D10CBD003802400070004094
:1024500008544007003C0240042808D14FF0E02116
:10246000096941F004014FF0E022116107E04FF0EB
:10247000E021096921F004014FF0E0221161704769
:1024800010B51548006840F47000134908601348FF
:10249000006840F001001149086000200F49083130
:1024A00008600E4800680E4908400C4908600D4855
:1024B000091D0860081F006820F48020091F0860BB
:1024C000002006490C310860FFF750FF4FF0006014
:1024D00001498039086010BD88ED00E000380240F5
:1024E000FFFFF6FE1030002410B50121094800F06E
:1024F000ACF868B10121074800F098F80648006878
:10250000401C0549086005480068401C03490860F4
:1025100010BD000000040040900000209800002042
:102520001FB5044601210220FFF702FE01211548D4
:1025300000F07CF802945320ADF804000020ADF8C0
:102540000600ADF80C0001A90E4800F099F8002033
:102550008DF80E00012211460A4800F087F84FF46A
:10256000C060FFF723F81D208DF8000001208DF8D2
:1025700001008DF802008DF803006846FEF7DAFFCF
:102580001FBD00000004004010B501210B4800F001
:102590005CF840B10121094800F048F8084800689B
:1025A000401C07490860064800681E2190FBF1F0B6
:1025B000012802D100200249086010BD000C004033
:1025C0009C0000201FB5044601210820FFF7B0FD44
:1025D0000121154800F02AF85420604302900020A1
:1025E000ADF80400ADF80600ADF80C008DF80E0053
:1025F00001A90D4800F044F8012211460A4800F0F4
:1026000035F84FF4C060FEF7D1FF32208DF800009E
:1026100001208DF801008DF802008DF80300684656
:10262000FEF788FF1FBD0000000C0040CA43028275
:10263000704721B1028842F00102028004E0028862
:102640004FF6FE731A400280704730B502460020F4
:1026500000230024158A05EA0103958905EA01048F
:1026600013B10CB1012000E0002030BD1AB1838904
:102670000B43838102E083898B4383817047000091
:1026800000220288184B98420ED0184B98420BD06B
:10269000B0F1804F08D0164B984205D0154B9842A8
:1026A00002D0154B984204D14FF68F731A404B88D5
:1026B0001A43124B984207D0114B984204D04FF660
:1026C000FF431A400B891A4302804B68C3620B8890
:1026D0000385054B984202D0044B984201D18B7A76
:1026E00003860123838270470000014000040140FB
:1026F0000004004000080040000C004000100040B2
:102700000014004010B5002440F22551304800F07C
:102710008BF800285BD02E4800F040F9C4B22D4859
:10272000006898B9AA2C09D12B482A490968445451
:1027300028480068401C2749086048E000202649D6
:10274000244A126888542349086040E02148006800
:10275000012813D1AA2C09D11F481E4909684454E5
:102760001C480068401C1B49086030E000201A49E2
:10277000184A126888541749086028E0154800680C
:1027800002280BD1144813490968445413480460C3
:1027900010480068401C0F49086018E00E480D49B9
:1027A000096844540B480068401C0A490860084600
:1027B00000680A490968884209DB06480068401E2B
:1027C0000549085C0649086000200249086010BD00
:1027D00000100140A000002044350020A40000208B
:1027E000AC00002001F40072B2F5007F00D100BF00
:1027F000CA430280704721B1828942F4005282812B
:1028000004E082894DF6FF731A40828170470246C8
:102810000020B1F5007F00D100BF13880B400BB141
:10282000012000E00020704770B50246002400231C
:102830000025002040F66A16B14200D100BFC1F366
:10284000421501F01F03012606FA03F3012D02D100
:102850009689334006E0022D02D1168A334001E00A
:10286000968A33400C12012606FA04F41688344086
:1028700013B10CB1012000E0002070BDF0B503469B
:10288000002400260025002040F66A17B94200D136
:1028900000BF1846C1F3421401F01F06012707FAD2
:1028A00006F5012C01D10C3004E0022C01D11030CE
:1028B00000E014301AB107682F43076002E0076890
:1028C000AF430760F0BD00002DE9FF4705460E4607
:1028D0000024A14600BFA046B08900B100BF2C8AE9
:1028E00024F44054F08804432C82AC8941F20C60FB
:1028F0008443B08831890843718908430443AC811B
:10290000AC8A24F44074B0890443AC826846FFF773
:102910002FFC2048854202D01F48854202D1DDF8B5
:102920000C9001E0DDF80890A88900F4004040B167
:1029300009EBC90000EB091031684900B0FBF1F761
:1029400007E009EBC90000EB091031688900B0FB12
:10295000F1F76420B7FBF0F004012009642101FBCA
:102960001078A88900F4004040B1322000EBC80084
:10297000B0FBF1F000F00700044308E0322000EB68
:1029800008106421B0FBF1F000F00F0004432C812B
:10299000BDE8FF870010014000140140014688880F
:1029A000C0F308007047C1F308028280704700003E
:1029B00010B51A48C078042803D1012018490870BE
:1029C00008E01648C07828B9002015490870134956
:1029D000C87008711148C07848B11248007830B901
:1029E00001201049087000200F49086007E00B48DB
:1029F000C07820B900200B4908700B4908600848CE
:102A00000078012804D120210848FEF7CBF903E023
:102A100020210648FEF7C4F910BD0000443500200F
:102A2000D8000020FC00002090000020000C024094
:102A300010B588B0044601210846FFF769FB012163
:102A40001020FFF785FB072209212548FEF77CF9B6
:102A500007220A212248FEF777F94FF4C06006905A
:102A600002208DF81C0003208DF81D0000208DF839
:102A70001E0001208DF81F0006A91948FEF71CF959
:102A800002940020ADF80C00ADF80E00ADF8100077
:102A9000ADF814000C20ADF8120002A91148FFF7A0
:102AA00013FF01210F48FFF7A6FE40210D48FFF755
:102AB00099FE012240F225510A48FFF7DFFE25204A
:102AC0008DF8040002208DF805008DF80600012025
:102AD0008DF8070001A8FEF72DFD08B010BD00001D
:102AE00000000240001001402DED020B019820F083
:102AF000004001909DED000B02B070470000000007
:102B00002DE9F0412DED020B9FED3D0B2DED028BDC
:102B10009FED3D8BDDE90254C4F30A50A0F2FF366D
:102B2000142E37DA002E18DA53EC102B9DED020B21
:102B300051EC100B02F0A2FA53EC182B02F03CFE01
:102B400057D2002CA4BF0024254652DA24F00040BE
:102B5000284318BF2E4C4CD01AE02E4820FA06F716
:102B600004EA070028431FD053EC102B9DED020B05
:102B700051EC100B02F082FA53EC182B02F01CFE01
:102B800037D2002C03DA4FF48010F0400444BC43E9
:102B900000252EE0332E07DCA6F114004FF0FF31A4
:102BA00021FA00F73D4206D19DED020BBDEC028BF0
:102BB00002B0BDE8F08153EC102B9DED020B51ECFF
:102BC000100B02F02FFE53EC182B02F0F5FD10D283
:102BD000002C0DDA142E08BF641C09D0C6F1340095
:102BE000012101FA00F02844A84238BF641C0546C0
:102BF000BD43CDE902549DED020BD7E70000000074
:102C00009C7500883CE4377E000000000000000056
:102C10000000F0BFFFFF0F002DE9F0412DED088B04
:102C200084B004460D4616461F46DDF84880142041
:102C300008EE100AFE4A07CACDE902120190FD48CB
:102C4000C07841287ED1FC480460FC480560FC48FF
:102C50000660FC480760FC48C0F800809DED010A52
:102C6000FA48D0ED000AB4EEE00AF1EE10FA6ADD9F
:102C70009DED010AD0ED000AB4EEE00AF1EE10FA83
:102C80002BDD9DED010A10EE101A084602F0C0FE81
:102C900041EC1B0B9FEDEE0B53EC102B02F0CEFD25
:102CA00041EC190BE948006802F0B2FE41EC1A0B46
:102CB00053EC192B02F080FD0FD20120DE49096888
:102CC0000873DE4909680873DD4909680873DD493E
:102CD00009680873DC49096808739FEDDF0AD64864
:102CE00080ED010AB0EE000A80ED040A9FEDDA0AD9
:102CF00080ED030A0020D04908759FEDD70ACF4820
:102D000080ED010AB8EE480A80ED040A9FEDD20A70
:102D100080ED030A0020C94908759FEDCF0AC84815
:102D200080ED010AB8EE480A80ED040A9FEDCA0A58
:102D300080ED030A002008759FEDC70AC14880EDA9
:102D4000010A01E01BE219E0B8EE480A80ED040A2E
:102D50009FEDC10A80ED030A002008759FEDBE0AB1
:102D6000B94880ED010AB8EE480A80ED040A9FEDEB
:102D7000BA0A80ED030A00200875EAE19DED020A17
:102D8000B248D0ED000AB4EEE00AF1EE10FA7CDDB4
:102D90000020A94909680873A84909680873A84967
:102DA00009680873A74909680873A749096808737F
:102DB0009DED010AA04880ED010AB8EE480A80EDB9
:102DC000040A9FEDA60A80ED030A00209A490875BF
:102DD0009FEDA30A0846006880ED3E0ABAEE040A99
:102DE0000846006880ED400A9FED9E0A084600688C
:102DF00080ED410AB2EE040A0846006880ED430AFD
:102E00009DED010A8D4880ED010AB8EE480A80ED7B
:102E1000040ABFEE000A80ED030A01208749087505
:102E2000BFEE080A0846006880ED3E0ABAEE040AC2
:102E30000846006880ED400A9FED8B0A084600684E
:102E400080ED410AB2EE040A0846006880ED430AAC
:102E50009DED010A7A4880ED010AB8EE480A80ED3E
:102E6000040ABFEE000A80ED030A012074490875C8
:102E70009FED7E0A0846006880ED3E0ABAEE040A1D
:102E80000846006880ED400A00E092E0B0EE080AD3
:102E90000846006880ED410AB2EE040A0846006860
:102EA00080ED430A9DED010A664880ED010AB8EE07
:102EB000480A80ED040ABFEE000A80ED030A0020F4
:102EC000604908759FED690A0846006880ED3E0A72
:102ED000BAEE040A0846006880ED400A9FED640AD5
:102EE0000846006880ED410AB2EE040A0846006810
:102EF00080ED430A9DED010A534880ED010AB8EECA
:102F0000480A80ED040ABFEE000A80ED030A0120A2
:102F10004D4908759FED570A0846006880ED3E0A46
:102F2000BBEE040A0846006880ED400A9FED4E0A99
:102F30000846006880ED410AB2EE040A08460068BF
:102F400080ED430A9DED020A4048D0ED000AB4EE40
:102F5000E00AF1EE10FA2BDD9DED020A10EE101AD8
:102F6000084602F055FD41EC1B0B9FED430B53EC63
:102F7000102B02F063FC41EC190B3448006802F09E
:102F800047FD41EC1A0B53EC192B02F015FC0FD244
:102F90000120294909684873284909684873284964
:102FA00009684873274909684873274909684873BD
:102FB000CFE09DED030A2548D0ED000AB4EEE00A0B
:102FC000F1EE10FAF4DD00201B49096848731B4933
:102FD000096848731A49096848731A4909684873A7
:102FE0001949096848739DED020A134880ED010AEA
:102FF000B8EE480A80ED040A9FED170A80ED030A37
:1030000000200D4908759FED1A0A0846006880EDFA
:10301000410AB2EE040A0846006880ED430A9DEDBD
:10302000020A064880ED010AB8EE480A28E00000CE
:10303000145B0008443500208C3D0020CC3D00206E
:103040000C3E00204C3E00208C3E002094000020CE
:10305000000000000000E03F0000000000004842C7
:103060003333B3BF3333B33FCDCC4C3FCDCC8CBF28
:10307000CDCC8C3FCDCC4CBF000000000000F83F11
:1030800080ED040ABFEE000A80ED030A01203E49EC
:103090000875B7EE080A0846006880ED410AB2EEEE
:1030A000040A0846006880ED430A9DED020A37488D
:1030B00080ED010AB8EE480A80ED040ABFEE000A6E
:1030C00080ED030A012031490875B7EE080A084669
:1030D000006880ED410AB2EE040A0846006880EDFF
:1030E000430A9DED020A2A4880ED010AB8EE480A1B
:1030F00080ED040ABFEE000A80ED030A0120244996
:1031000008751FED250A0846006880ED410AB2EEF9
:10311000040A0846006880ED430A9DED020A1D4836
:1031200080ED010AB8EE480A80ED040ABFEE000AFD
:1031300080ED030A0120174908759FED170A08461C
:10314000006880ED410AB2EE040A0846006880ED8E
:10315000430A0020607068707070787088F8010011
:103160000E48FEF7B1F80848FEF7AEF80748FEF73C
:10317000ABF80748FEF7A8F80648FEF7A5F804B034
:10318000BDEC088BBDE8F081CC3D00200C3E00205A
:103190004C3E00208C3E00206666A63F8C3D002001
:1031A00010B50D48C078052809D140F6FF720F21EF
:1031B000802001F0C3FA00200749C8700BE00648E0
:1031C000C078062807D100220F21802001F0B6FA2E
:1031D00000200149C87010BD4435002070B52DEDA8
:1031E000068B0446B3EE000AB0EE40AAE569A0489B
:1031F000006802F093F941EC190B9FED9E0B53EC24
:10320000102B01F0EFFF41EC180B01F005FF9B497B
:1032100008609B48C078012809D1281D9849085C9E
:1032200000EE100AB8EE400A84ED370A06E0944832
:10323000C078022802D0002084F8EC009048C078C2
:103240000A2190FBF1F0401EE169884251D18C487F
:10325000C0780A2190FBF1F201FB1200F8B988480E
:1032600040798749097901EBC10202EB011100EBBA
:103270008100E0638248C179807900EBC00202EBF3
:10328000001001EB800060647D48417A007A00EB19
:10329000C00202EB001001EB8000E06429E07848F6
:1032A000C0780A2190FBF1F201FB1200012820D125
:1032B000734840797249097901EBC10202EB0111AF
:1032C00000EB810020646E48C0796D49897901EB7B
:1032D000C10202EB011100EB8100A0646848407A52
:1032E0006749097A01EBC10202EB011100EB810091
:1032F00020656348C078012808D194ED370ADFEDD6
:10330000610AB4EE600AF1EE10FA37D15C48C07879
:103310003D2802D16078012830D05948C0783E2835
:1033200002D16078012829D05548C0783F2802D1C1
:103330006078012822D05248C078402802D16078B5
:1033400001281BD04E48C078412802D1607801285E
:1033500014D04B48C078422802D1607801280DD0A3
:103360004748C078432802D16078012806D04448F5
:10337000C07846280FD1607801280CD12046FEF78E
:103380001FF994F8EC0030B9012084F8EC0094EDBA
:10339000380A84ED3C0A607838B99FED3B0A84ED29
:1033A000450A9FED390A84ED440A607801280BD163
:1033B000207E012808D1B7EE000A84ED450A9FED72
:1033C000320A84ED440A0DE0607801280AD1607E5B
:1033D000012807D19FED2C0A84ED450AB7EE000ABB
:1033E00084ED440A607801280BD1207B012808D1A4
:1033F0009FED260A84ED450A9FED230A84ED440AD9
:103400000DE0607801280AD1607B012807D19FED8B
:103410001E0A84ED450A9FED1D0A84ED440A1848F2
:10342000C07810BB16480079F8B99FED170A84EDF3
:10343000460A9FED150A84ED470A9FED130A84EDB5
:10344000450A9FED110A84ED440A002020700120F6
:1034500060709FED0D0A84ED4A0ABFEE000A84ED0C
:10346000480A9FED090A84ED490ABDEC068B70BD40
:1034700090000020000000000088C340940000205D
:103480004435002000007F43000000006666663F70
:1034900010B504466FF00400FEF7DEFFE11704EB01
:1034A0005171C1F3C701074A11701046007800EB53
:1034B0004001C1EBC0104FF6FF7101EAC0000249A4
:1034C000088010BD880000208A0000200146114AB3
:1034D00012784A434FF0E0235A6100229A611A465B
:1034E000126942F001021A6100BF4FF0E022106938
:1034F00000F001021AB100F48032002AF5D04FF03A
:10350000E022126922F001024FF0E0231A6100224A
:103510009A617047880000202DE9F0412DED088B5D
:1035200084B004460D4616461F46DDF8488011203B
:1035300008EE100A6D4A07CACDE9021201906C48E4
:10354000C0783E287DD16B4804606B4805606B48AD
:1035500006606B4807606B48C0F800809DED010A6B
:103560006948D0ED000AB4EEE00AF1EE10FA20DD71
:103570009FED660A5F4880ED010AB7EE000A80ED14
:10358000040A9FED620A80ED030A0020594908757C
:103590009FED5E0A584880ED010AB7EE000A80ED03
:1035A000040A9FED5A0A80ED030A0020524908756B
:1035B0008AE09DED020A5448D0ED000AB4EEE00A1C
:1035C000F1EE10FA4FDD9DED010A4A4880ED010A47
:1035D000B8EE480A80ED040A9FED4D0A80ED030A1B
:1035E0000120444908759DED010A434880ED010A18
:1035F000B8EE480A80ED040A9FED460A80ED030A02
:1036000001203D4908759DED020A3F48D0ED000AB2
:10361000B4EEE00AF1EE10FA56DD9DED020A10EE6E
:10362000101A084602F0F4F941EC1B0B9FED3A0B1F
:1036300053EC102B02F002F941EC190B32480068F0
:1036400000E04EE002F0E4F941EC1A0B53EC192BC8
:1036500002F0B2F838D20120264909684873264999
:103660000968487330E09DED030A2748D0ED000A51
:10367000B4EEE00AF1EE10FA26DD00201D490968DB
:1036800048731D49096848739DED020A194880ED89
:10369000010AB8EE480A80ED040A9FED1C0A80ED8D
:1036A000030A0120134908759DED020A124880EDB6
:1036B000010AB8EE480A80ED040A9FED140A80ED75
:1036C000030A01200C490875002060706870707052
:1036D000787088F801000748FDF7F6FD0648FDF709
:1036E000F3FD04B0BDEC088BBDE8F081085B000879
:1036F000443500204C3C00208C3C0020CC3C002079
:103700000C3D00204C3D00209400002000000000F3
:10371000000070420000B4420000000000000040C1
:1037200008B500BF002400BF00BFA820FFF7B0FE0F
:10373000FDF734FCFDF716FC4FF4E130FFF778F9A4
:103740006420FEF7EDFE6420FEF73CFF0121FE48F9
:10375000FEF76FFF0021FD48FEF76BFFFDF724FB2E
:103760004FF44870FEF788FC054629468020FEF796
:1037700049FCFCF731FFFDF70FFCF548F5490860FF
:10378000F548F6490860F648F6490860F648F749F2
:103790000860F748F7490860EE480068F649086095
:1037A000EE4800684860EF4800688860EF480068AD
:1037B000C860F048006808610020E6490968C861EF
:1037C0000120E6490968C8610220E6490968C86124
:1037D0000320E6490968C8610420E6490968C86110
:1037E0009FEDE60AE64880ED000A9FEDE60A80EDCF
:1037F0000A0AE5484068D7490968C863E348406851
:10380000D44909684864E2484068D2490968C864F4
:10381000DD480068CF4909680864DC480068CD4984
:1038200009688864DA480068CA4909680865D648A2
:10383000C068CA490968C863D448C068C7490968EC
:103840004864D348C068C5490968C864CE488068E0
:10385000C24909680864CD488068C049096888641D
:10386000CB488068BD4909680865C7484069BD49BB
:103870000968C863C5484069BA4909684864C448CA
:103880004069B8490968C864BF480069B549096812
:103890000864BE480069B34909688864BC48006987
:1038A000B04909680865B848C069B0490968C86383
:1038B000B648C069AD4909684864B548C069AB49B4
:1038C0000968C864B0488069A84909680864AF48B5
:1038D0008069A64909688864AD488069A349096878
:1038E0000865A948406AA3490968C863A748406AAF
:1038F000A04909684864A648406A9E490968C864A6
:10390000A148006A9B4909680864A048006A99496F
:10391000096888649E48006A9649096808659FEDB1
:103920009D0A8C48006880ED370A9FED9A0A8B4803
:10393000006880ED370A9FED970A8A48006880ED9D
:10394000370A9FED940A8948006880ED370A9FED99
:10395000910A8848006880ED370A9FED8F0A7D48FC
:10396000006880ED3E0ABAEE040A7A48006880EDED
:10397000400A9FED8A0A7748006880ED410AB2EE5E
:10398000040A7448006880ED430ABFEE080A7348D1
:10399000006880ED3E0ABAEE040A7048006880EDC7
:1039A000400AB7EE080A6D48006880ED410AB2EEA1
:1039B000040A6A48006880ED430A9FED790A694865
:1039C000006880ED3E0ABAEE040A6648006880EDA1
:1039D000400AB0EE080A6348006880ED410AB2EE82
:1039E000040A6048006880ED430A9FED6E0A5F4854
:1039F000006880ED3E0ABAEE040A5C48006880ED7B
:103A0000400A9FED690A5948006880ED410AB2EE0C
:103A1000040A5648006880ED430A9FED640A554841
:103A2000006880ED3E0ABAEE040A5248006880ED54
:103A3000400A9FED5A0A4F48006880ED410AB2EEF5
:103A4000040A4C48006880ED430A9FED540A41483F
:103A5000006880ED040A9FED560A3E48006880ED3C
:103A6000050A9FED540A3D48006880ED040A9FED69
:103A7000510A3A48006880ED050A9FED4F0A39481F
:103A8000006880ED040A9FED4C0A3648006880ED1E
:103A9000050A9FED490A3548006880ED040A9FED4C
:103AA000460A3248006880ED050A9FED430A314816
:103AB000006880ED040A9FED400A2E48006880ED02
:103AC000050ABFEE000A2348006880ED480ABFEEF1
:103AD000000A2248006880ED480ABFEE000A21482B
:103AE000006880ED480ABFEE000A2048006880EDBB
:103AF000480ABFEE000A1F48006880ED480AA2E1AC
:103B0000FDF706FBFEF754FFFFF74AFB1948006874
:103B100000901648036813480268104801680D4871
:103B20000068FEF7D3FB1348006800900F48036855
:103B30000C4802680948016806480068FFF7ECFC79
:103B40000C480068009039E000040040000C004080
:103B50005C360020E800002088370020EC000020C0
:103B6000B4380020F0000020E0390020F4000020EC
:103B70000C3B0020F8000020383C00200000C84228
:103B8000AC3500200020A9440000002028000020BF
:103B90005000002000000000CDCC4CBFCDCC4C3FED
:103BA000CDCC8CBF666666BF6666663F6666A6BF9E
:103BB0009A99593F3333333F9A99193FA248036882
:103BC000A2480268A2480168A248006800F0FAFE14
:103BD000A148006800909C4803689C4802689C4883
:103BE00001689C480068FFF717F89B480068009040
:103BF00095480368954802689548016895480068AB
:103C000000F0E0FF9448006800908F4803688F48F8
:103C100002688F4801688F48006800F0FBFB8E48FF
:103C200000680090884803688848026888480168EE
:103C30008848006800F016F98748006800908248BC
:103C4000036882480268824801688248006800F080
:103C5000EDF98148006800907B4803687B48026862
:103C60007B4801687B48006800F09AFD794800684D
:103C7000FFF7B4FA76480068FFF7B0FA73480068B7
:103C8000FFF7ACFA70480068FFF7A8FA72480068BE
:103C9000FFF7A4FA7048006800906B4803686B480F
:103CA00002686B4801686B480068FEF709F96B48C9
:103CB0000068B0F5967F7DD96948C078652879D0CD
:103CC0006748C07866287DD06248006890ED370A62
:103CD000BCEEC00A10EE100AC1B2002000F09CFC3D
:103CE0005B48006890ED370ABCEEC00A10EE100A7F
:103CF000C1B2012000F090FC5448006890ED370AF2
:103D0000BCEEC00A10EE100AC1B2022000F084FC22
:103D10004D48006890ED370ABCEEC00A10EE100A5C
:103D2000C1B2032000F078FC4B48006890ED370AE0
:103D3000BCEEC00A10EE100AC1B2042000F06CFC08
:103D40004448006890ED360ABCEEC00A10EE100A36
:103D5000C1B2052000F060FC3D48006890ED360AD5
:103D6000BCEEC00A10EE100AC1B2062000F054FCEE
:103D70003648006890ED360ABCEEC00A10EE100A14
:103D8000C1B2072000F048FC2F48006890ED360AC9
:103D9000BCEEC00A10EE100AC1B2082000F03CFCD4
:103DA0002D48006890ED360ABCEEC00A10EE100AED
:103DB000C1B200E006E0092000F02EFC00202749F7
:103DC000086040E025480068B0F5967F1BD924487C
:103DD000C078662817D1641C1F48006800901A48F4
:103DE00003681A4802681A4801681A480068FDF713
:103DF0008BFC0A2C03D1002400201949C870002034
:103E0000164908601FE015480068B0F5967F1AD97A
:103E10001348C078652816D1641C0F4800680090CC
:103E200009480368094802680948016809480068A8
:103E3000FDF72CFE642C03D1002400200849C87033
:103E40000020064908605BE6F4000020F000002036
:103E5000EC000020E8000020F8000020980000207E
:103E6000443500202DE9F0412DED028B04460D462E
:103E700016461F46DDF82080142008EE100A4B4835
:103E8000C07842287ED14A4804604A4805604A48C2
:103E900006604A4807604A48C0F80080494890EDEB
:103EA000000AF2EE0E0AB4EEE00AF1EE10FA0DD2BC
:103EB0009FED450A3E4880ED010AB7EE000A80ED0D
:103EC000040ABFEE000A80ED030A60E03D4890ED71
:103ED000000ADFED3E0AB4EEE00AF1EE10FA26D257
:103EE000B2EE0E0A324880ED010AB8EE480A80EDC3
:103EF000040AB3EE0E0A80ED030A01202C4908756E
:103F0000304890ED000ADFED310AB4EEE00AF1EE40
:103F100010FA3CD290ED000ADFED2D0AB4EEE00A73
:103F2000F1EE10FA33DD0120096848732FE02548CF
:103F300090ED000ADFED270AB4EEE00AF1EE10FA88
:103F400025D200201A49096848739FED200A1848B5
:103F500080ED010AB8EE480A80ED040A9FED1A0AC6
:103F600080ED030A90ED040AD0ED010A30EE200A3C
:103F700080ED020AB7EE080A006880ED410AB2EE51
:103F8000040A00E00DE00A48006880ED430A0020C2
:103F9000607068707070787088F801000448FDF7F0
:103FA00093F9BDEC028BBDE8F081000044350020A0
:103FB0008C420020CC4200200C4300204C430020C7
:103FC0008C430020940000200000000000004842C4
:103FD0000000404200008C4200200F49096808732D
:103FE0000D49096848730D49096808730B49096848
:103FF00048730B49096808730949096848730949F6
:10400000096808730749096848730749096808730C
:104010000549096848737047E8000020EC0000205B
:10402000F0000020F4000020F80000202DE9F0410D
:104030002DED028B88B004460D4616461F46DDF86E
:104040004080052008EE100A1C22E34901A8FCF775
:104050002BF9E248C07843287ED1E1480460E1486A
:104060000560E1480660E1480760E148C0F800806B
:104070009DED010ADF48D0ED000AB4EEE00AF1EE52
:1040800010FA30DD9FEDDC0AD54880ED010AB7EE6D
:10409000000A80ED040AB1EE040A80ED030A002054
:1040A000CF4908759FEDD40ACE4880ED010AB7EEDE
:1040B000000A80ED040AB2EE0E0A80ED030A002029
:1040C000C84908759FEDCC0AC74880ED010AB7EED4
:1040D000000A80ED040AB2EE0E0A80ED030A002009
:1040E000C149087562E19DED020AC248D0ED000A9F
:1040F000B4EEE00AF1EE10FA32DD9DED010AB848A7
:1041000080ED010AB8EE480A80ED040A9FEDBB0A73
:1041100080ED030A0120B24908759DED010AB148FE
:1041200080ED010AB8EE480A80ED040AB2EE0E0AEC
:1041300080ED030A0020AB4908759DED010AAA48ED
:1041400080ED010AB8EE480A80ED040AB2EE0E0ACC
:1041500080ED030A002000E038E1A349087525E15D
:104160009DED030AA348D0ED000AB4EEE00AF1EE9B
:1041700010FA30DD9DED020A994880ED010AB8EE93
:10418000480A80ED040AB3EE0E0A80ED030A01200E
:10419000934908759DED020A924880ED010AB8EE38
:1041A000480A80ED040AB2EE0E0A80ED030A0020F0
:1041B0008C4908759DED020A8B4880ED010AB8EE26
:1041C000480A80ED040AB2EE0E0A80ED030A0020D0
:1041D00085490875EAE09DED040A8648D0ED000A9D
:1041E000B4EEE00AF1EE10FA30DD9DED030A7C48F2
:1041F00080ED010AB8EE480A80ED040A9FED800ABE
:1042000080ED030A0120764908759DED030A754883
:1042100080ED010AB8EE480A80ED040A9FED790AA4
:1042200080ED030A01206F4908759DED030A6E4871
:1042300080ED010AB8EE480A80ED040AB2EE0E0ADB
:1042400080ED030A002068490875AFE09DED050A7E
:104250006848D0ED000AB4EEE00AF1EE10FA30DD65
:104260009DED040A5E4880ED010AB8EE480A80ED33
:10427000040AB3EE0E0A80ED030A012058490875BE
:104280009DED040A574880ED010AB8EE480A80ED1A
:10429000040A9FED5D0A80ED030A0120514908756B
:1042A0009DED040A504880ED010AB8EE480A80ED01
:1042B000040AB2EE0E0A80ED030A00204A4908758E
:1042C00074E09DED060A4B48D0ED000AB4EEE00A1A
:1042D000F1EE10FA30DD9DED050A414880ED010A4E
:1042E000B8EE480A80ED040A9FED480A80ED030A03
:1042F00001203B4908759DED050A3A4880ED010A09
:10430000B8EE480A80ED040A9FED3E0A80ED030AEC
:104310000120344908759DED050A334880ED010AF6
:10432000B8EE480A80ED040A9FED390A80ED030AD1
:1043300001202D49087539E09DED070A2D48D0ED83
:10434000000AB4EEE00AF1EE10FA2FDD9DED060A48
:10435000234880ED010AB8EE480A80ED040A9FED7B
:10436000260A80ED030A01201D4908759DED060A05
:104370001C4880ED010AB8EE480A80ED040A9FED62
:104380001E0A80ED030A0120164908759DED060AF4
:10439000154880ED010AB8EE480A80ED040A9FED49
:1043A000160A80ED030A01200F490875002060708D
:1043B00068707070787088F801000948FCF784FF15
:1043C0000848FCF781FF0848FCF77EFF08B0BDEC09
:1043D000028BBDE8F0810000385B00084435002006
:1043E000CC4300200C4400204C4400208C4400208E
:1043F000CC44002094000020000000000000DC42BB
:10440000000070420000B4420000204200008C42D4
:104410000000D2422DE9F0412DED028B84B004461C
:104420000D4616461F46DDF83080052008EE100ABE
:104430006D4A07CACDE9021201906C48C0783F2846
:104440007ED16B4804606B4805606B4806606B4822
:1044500007606B48C0F800809DED010A6948D0ED07
:10446000000AB4EEE00AF1EE10FA30DD9FED660AC4
:104470005F4880ED010AB7EE000A80ED040AB1EE54
:10448000040A80ED030A0020594908759FED5E0A71
:10449000584880ED010AB7EE000A80ED040AB2EE3A
:1044A0000E0A80ED030A0020524908759FED560A56
:1044B000514880ED010AB7EE000A80ED040AB2EE21
:1044C0000E0A80ED030A00204B49087576E09DED49
:1044D000020A4C48D0ED000AB4EEE00AF1EE10FA00
:1044E00032DD9DED010A424880ED010AB8EE480A2E
:1044F00080ED040A9FED450A80ED030A01203C4946
:1045000008759DED010A3B4880ED010AB8EE480AA6
:1045100080ED040A9FED3E0A80ED030A0120354933
:1045200008759DED010A344880ED010AB8EE480A8D
:1045300080ED040A9FED370A80ED030A012000E0B8
:104540004CE02D49087539E09DED030A2D48D0ED6A
:10455000000AB4EEE00AF1EE10FA2FDD9DED020A3A
:10456000234880ED010AB8EE480A80ED040AB1EE56
:10457000040A80ED030A01201D4908759DED020A19
:104580001C4880ED010AB8EE480A80ED040AB2EE3C
:104590000E0A80ED030A0120164908759DED020AF6
:1045A000154880ED010AB8EE480A80ED040AB2EE23
:1045B0000E0A80ED030A01200F4908750020607083
:1045C00068707070787088F801000948FCF77CFE0C
:1045D0000848FCF779FE0848FCF776FE04B0BDEC0D
:1045E000028BBDE8F0810000205B0008443500200C
:1045F000CC3E00200C3F00204C3F00208C3F002090
:10460000CC3F0020940000200000000000008C42FD
:104610000000B4420000D2427CB504460D4633A1EE
:1046200003C9CDE900016E213248FEF7BCF900BF95
:1046300080213048FEF7EBF80028F9D00A2094FBDF
:10464000F0F100FB1140303086B231462948FEF7C8
:10465000AAF900BF80212748FEF7D9F80028F9D031
:104660000A2094FBF0F078B10A2094FBF0F030308F
:1046700086B231461F48FEF796F900BF80211D48DB
:10468000FEF7C5F80028F9D000260CE01DF806104A
:104690001848FEF788F900BF80211648FEF7B7F8E2
:1046A0000028F9D0761C052EF0DB1DB1284600F05D
:1046B00023F80AE030210F48FEF775F900BF80218A
:1046C0000C48FEF7A4F80028F9D000260BE0FF21E3
:1046D0000848FEF768F900BF80210648FEF797F802
:1046E0000028F9D0761C032EF1DB7CBD2E76616CA0
:1046F0003D0000000010014070B5044604B970BDD3
:104700000A2094FBF0F0C5B22846FFF7F5FF0A2017
:1047100094FBF0F100FB1140303085B22946064889
:10472000FEF741F900BF80210348FEF770F800282A
:10473000F9D000BFE3E70000001001402DE9F04789
:1047400006460C4615460027B8464FEA252905F0CF
:10475000FF0AFCF7A5FB3046FCF772FBFCF7D8FB21
:10476000062101EB8401C8B2FCF76AFBFCF7D0FB21
:104770004046FCF765FBFCF7CBFB3846FCF760FBDB
:10478000FCF7C6FB5046FCF75BFBFCF7C1FB484659
:10479000FCF756FBFCF7BCFBFCF79EFBBDE8F08783
:1047A0002DE9F0472DED088BADF5966D074688464F
:1047B00091469A46DDF8F0644FF496627C4968466B
:1047C000FBF772FD7B48C07846287CD10024E5E0E9
:1047D000794850F8240079490860774850F8240057
:1047E00090ED4A0A7648D0ED000A30EEC08A90ED8E
:1047F000000A0846006880ED4A0A6F4850F8240015
:1048000090ED490AB5EEC00AF1EE10FA09D96A48EE
:1048100050F8240090ED490AB4EEC80AF1EE10FAFF
:104820002CDD654850F8240090ED480AF7EE000AA8
:1048300030EE200A604850F8240080ED480A5E48B7
:1048400050F8240090ED480ABCEEC00A10EE100AA1
:10485000C5B2C4EB0410694601EB001005EB45013D
:1048600030F9210000EE100AB8EEC00A524850F8A4
:10487000240080ED490AFFF7AFFB8EE04E4850F868
:10488000240090ED480ABCEEC00A10EE100AC5B232
:10489000681C00B981E0484850F8240090ED490AAE
:1048A00030EE480A444850F8240080ED490AC4EB31
:1048B0000410694601EB001005EB450130F92100B9
:1048C00000EE100A00E06CE0B8EEC00A3B4880ED54
:1048D000040AC4EB0410694601EB001005EB450126
:1048E00000EB8100B0F9020000EE100AB8EEC00A39
:1048F000324880ED030AC4EB0410694601EB001056
:1049000005EB450100EB810000792C490875C4EBEB
:1049100004106A4602EB001005EB450200EB820032
:1049200090ED020A10EE101A084601F071F841EC01
:104930001B0BB0EE4B0AF0EE6B0AFEF7D5F8B0EEAB
:10494000409AF0EE609A18EE100A01F061F841EC1E
:104950001A0B53EC192B00F0F5FD1AD2C4EB04101E
:10496000694601EB001005EB450100EB810090ED7D
:10497000020AB5EEC00AF1EE10FA05DD01200E497B
:1049800051F82410087304E001200B4951F8241059
:1049900048730A48FCF798FC00BF641C052CFFF61E
:1049A00017AF0DF5966DBDEC088BBDE8F0870000E4
:1049B000545B000844350020383C00200C450020A2
:1049C000940000202DE9F0412DED028B04460D46A8
:1049D00016461F46DDF82080052008EE100A6D48B7
:1049E000C0783D287DD16C4804606C4805606C48F7
:1049F00006606C4807606C48C0F800806B4890ED1A
:104A0000000AF3EE040AB4EEE00AF1EE10FA41D225
:104A1000B1EE020A604880ED010AB8EE480A80ED66
:104A2000040A9FED630A80ED030A9FED620A5B486A
:104A300080ED010AB8EE480A80ED040A9FED5E0A97
:104A400080ED030A9FED5B0A554880ED010AB8EE40
:104A5000480A80ED040A9FED580A80ED030A9FED95
:104A6000550A504880ED010AB8EE480A80ED040A64
:104A70009FED510A80ED030A9FED4E0A4A4880EDF2
:104A8000010AB8EE480A80ED040A9FED4B0A80ED5A
:104A9000030A64E0454890ED000ADFED480AB4EEF1
:104AA000E00AF1EE10FA5AD2B3EE040A3A4880ED69
:104AB000010AB8EE480A80ED040AB1EE040A80ED5E
:104AC000030A90ED040AD0ED010A30EE200A80EDD1
:104AD000020A9FED3B0A314880ED010AB8EE480A10
:104AE00000E052E080ED040AB2EE0E0A80ED030A07
:104AF00090ED040AD0ED010A30EE200A80ED020AA2
:104B00009FED2F0A264880ED010AB8EE480A80ED95
:104B1000040AB2EE0E0A80ED030A90ED040AD0ED0D
:104B2000010A30EE200A80ED020A9FED250A1D4899
:104B300080ED010AB8EE480A80ED040AB2EE0E0AD2
:104B400080ED030A9FED1E0A174880ED010AB8EEBA
:104B5000480A80ED040AB2EE0E0A80ED030A002036
:104B6000607068707070787088F801000A48FCF70F
:104B7000ABFB0A48FCF7A8FB0948FCF7A5FB094872
:104B8000FCF7A2FB0848FCF79FFBBDEC028BBDE8DD
:104B9000F0810000443500200C4000204C400020F3
:104BA0008C400020CC4000200C41002094000020CC
:104BB000000048420000000000002A43000020429C
:104BC0000000C4412DE9F0432DED068B83B005466E
:104BD0000E4617469846DDF840900F24FD4A07CA56
:104BE0008DE80700FC48C07840287DD1FB4805606F
:104BF000FB480660FB480760FB48C0F80080FB48A4
:104C0000C0F800909DED000AF948D0ED000AB4EE1E
:104C1000E00AF1EE10FA57DD9FEDF60AEF4880ED5D
:104C2000010A00EE104AB8EE400A80ED040ABFEE19
:104C3000000A80ED030A0020E84908759FEDED0A9F
:104C4000E74880ED010A00EE104AB8EE400A80ED18
:104C5000040A9FEDE80A80ED030A0020E049087588
:104C60009FEDE40ADF4880ED010A00EE104AB8EE3D
:104C7000400A80ED040A9FEDDF0A80ED030A002060
:104C800008759FEDDC0AD84880ED010A00EE104A55
:104C9000B8EE400A80ED040A9FEDD60A80ED030AC3
:104CA000002008759FEDD30AD04880ED010A00EE80
:104CB000104AB8EE400A80ED040A9FEDCE0A80ED5E
:104CC000030A0020087568E19DED010AC848D0ED8F
:104CD000000AB4EEE00AF1EE10FA7DDD9DED000A67
:104CE000BE4880ED010A00E06EE1E01E00EE100A11
:104CF000B8EEC00AB94880ED040A9FEDBF0A80ED06
:104D0000030A0020B54908759DED000AF0EE080A77
:104D100030EE200AB24880ED010AE01C00EE100AD5
:104D2000B8EEC00AAE4880ED040A9FEDB40A80EDEB
:104D3000030A0120AA4908759DED000AF0EE080A51
:104D400030EE200AA74880ED010AE01C00EE100AB0
:104D5000B8EEC00AA34880ED040A9FEDA90A80EDD1
:104D6000030A01209F4908759DED000AF0EE080A2C
:104D700030EE200A9C4880ED010AE01C00EE100A8B
:104D8000B8EEC00A984880ED040A9FED9E0A80EDB7
:104D9000030A0120944908759DED000AF0EE080A07
:104DA00030EE200A914880ED010AE01C00EE100A66
:104DB000B8EEC00A8D4880ED040A9FED930A80ED9D
:104DC000030A0020894908759DED010A8848D0ED45
:104DD000000AB4EEE00A00E02FE0F1EE10FA2BDD5D
:104DE0009DED010A10EE101A084600F011FE41EC8C
:104DF0001A0B9FED860B53EC102B00F01FFD41ECBE
:104E0000180B7B48006800F003FE41EC190B53ECD3
:104E1000182B00F0D1FC0FD20120704909684873AB
:104E20006F49096848736F49096848736E49096892
:104E300048736E4909684873AFE09DED020A6C48FB
:104E4000D0ED000AB4EEE00AF1EE10FAF4DD002035
:104E50006249096848736249096848736149096889
:104E600048736149096848736049096848739DED52
:104E7000010A5A4880ED010A00EE104AB8EE400AD5
:104E800080ED040A9FED5B0A80ED030A012053497F
:104E900008759FED600A0846006880ED410AB2EE91
:104EA000040A0846006880ED430A9DED010A4C485B
:104EB00080ED010A00EE104AB8EE400A80ED040AC7
:104EC0009FED4C0A80ED030A012045490875B0EEBC
:104ED000000A0846006880ED410AB3EE040A08465D
:104EE000006880ED430A9DED010A3E4880ED010A0D
:104EF00000EE104AB8EE400A80ED040A9FED3D0A2C
:104F000080ED030A012037490875B0EE000A084613
:104F1000006880ED410AB3EE040A0846006880ED9F
:104F2000430A9DED010A304880ED010A00EE104A67
:104F3000B8EE400A80ED040A9FED2E0A80ED030AC8
:104F4000012029490875B0EE080A0846006880ED7E
:104F5000410AB2EE040A0846006880ED430A9DED5E
:104F6000010A224880ED010A00EE104AB8EE400A1C
:104F700080ED040A9FED1F0A80ED030A01201B4902
:104F80000875B0EE0C0A0846006880ED410AB2EEE2
:104F9000040A0846006880ED430A002068707070BB
:104FA000787088F8010089F801000C48FCF78CF94A
:104FB0000B48FCF789F90B48FCF786F90A48FCF71F
:104FC00083F90A48FCF780F903B0BDEC068BBDE815
:104FD000F08300002C5B0008443500204C41002089
:104FE0008C410020CC4100200C4200204C4200208B
:104FF00094000020000000000000A0420000704269
:1050000000008242000096420000AA420000000018
:105010000000F83F6666064021F00042A2F16052AF
:10502000B2F5801F01F0004328BFD2F17F6C0BD98D
:105030005FEA001C43EAC20242EB507018BF70479F
:1050400028BF20F001007047B2F5801FBCBF184692
:1050500070474FEA410C1CF5001F02D2084600F0D1
:105060004DBD70B500F054FB00000089FFF7F6BF9E
:105070004FF00040A0F580007047000010B591EAA5
:10508000030F48BF83F0004300F1E083841A71EB03
:10509000030C05D2121943EB0C03001B61EB0C014E
:1050A000DFF824E14FEA1154A4EB135C1EEA430F2E
:1050B00018BF9EEA445F73D023EA0E03DCF1200E92
:1050C00021EA045143F4801332D322FA0CFE10EB90
:1050D0000E0023FA0CFE41EB0E01CCF1200E03FA78
:1050E0000EFE10EB0E0051F10001B1F5801FCCF166
:1050F000200E32D201EB045112FA0EF2BDE810403C
:1051000058BF7047401C38BF5FEA420218BF704763
:10511000002814BF20F0010041F100014FEA4103D3
:1051200013F5001F38BF7047A1F1C04100F03EBB2E
:10513000012A43EB0302ACF1200CDCF11F0E32BF5D
:105140004FF0000E23FA0CF310EB030041EB045177
:10515000B4EB115FD0D0A1EB045101F580114908E7
:105160005FEA300001EB04510ED350F1000038BF6C
:1051700012FA0EFE08D1BDE81040C9E7401C38BF46
:105180005FEA4202CAD1C3E7BDE810404FEA4103DB
:1051900013F5001F38BF7047A1F1C04100F006BBF6
:1051A0009EEA445F08D011EA5E0FBDE8104004BFDC
:1051B00001F0004100207047BDE8104070B500F0DC
:1051C000A7FA00BF64FBBE3E0000E0FF491058BFD5
:1051D000C1F140415B1058BFC3F140438B42EFF334
:1051E000008070472DE9C04130B4DFF8A0C23CEA2E
:1051F000111418BF3CEA131400F0EC8081EA030597
:105200001CEA111444EAD57418BF1CEA131500F007
:10521000C780A4EB05044FF0004545EAC12145EAEB
:10522000C32341EA505143EA525304F17F74994237
:1052300004F500344FEAC0204FEAC22208BF904272
:1052400000F09C804FEA13650FF24016765D4FEA3E
:10525000134506FB05F7C7F1807706FB07F74FEA12
:10526000D737A7FB03687642C8F58038A7FB06CE80
:1052700038BFA8F1010807FB08E64FF0000EA6FBB7
:10528000028CE6FB03CEDCF1000CCEF1004E38BF01
:10529000AEF1010EA6FB0C584FF000074FF00005D1
:1052A000E6FB0E87A1FB08C6A0FB07CE16EB0E0699
:1052B00045F10005E1FB076515F1E04E7EBFA4F561
:1052C00080345FEA46066D4116F1800745F100051E
:1052D0004FEA17274FEA066647EA0567A6F1DE465A
:1052E000B6F1805F4FEA15251FD9384624F0010C2E
:1052F00005EBC471BCF1FE6F01EB0C1102D8F0BCE0
:10530000BDE8008124425CBF01F5801E9EEAC47F97
:1053100002D4F0BCBDE80081244238D4F0BCA1F135
:10532000C041BDE8004100F041BA4FEAD22242EA52
:1053300043524FEAD323A7FB02864FEAD02040EA2C
:10534000415007FB03661EEA0E0F4FEAD12105FB11
:10535000026658BFA6EB0056B6EB00564FEA520E57
:105360004EEAC37E18EB0E0E56EB530EBDD518EB6E
:1053700002085E417F1C55F10005B6E74FF4801529
:105380004FF000074FF000064FF00008ADE7F0BC0B
:105390004FF0000001F1C04101F00041BDE8008183
:1053A00011EA0C1F0CEA131500D00CE013EA0C1FD5
:1053B00000F025804FF00000F0BC81EA030101F00D
:1053C0000041BDE80081F0BCBDE8004181EA030175
:1053D00000F0ECB9F0BCBDE8004170B500F098F900
:1053E000097EFC3E00F007B881EA03014FF000009F
:1053F00001F00041704781EA030100F0D7B9F0BC29
:10540000BDE800414FF0000021497047FFFDFBF966
:10541000F7F5F4F2F0EEEDEBE9E8E6E4E3E1E0DEE7
:10542000DDDBDAD8D7D5D4D3D1D0CFCDCCCBCAC859
:10543000C7C6C5C4C2C1C0BFBEBDBCBBBAB9B8B780
:10544000B6B5B4B3B2B1B0AFAEADACABAAA9A8A873
:10545000A7A6A5A4A3A3A2A1A09F9F9E9D9C9C9B41
:105460009A999998979796959594939392919190EC
:105470008F8F8E8E8D8C8C8B8B8A8989888887877D
:105480008685858484838382828181800000FF07F2
:105490000000F87F4FEA1153A3F58063D3F11E0398
:1054A000A8BFD3F1200C08DB4FF0004242EAC12232
:1054B00052EA505232FA03F0704709420BD4102BD3
:1054C000C4BF0020704703F5787CBCF1FF3F05D0D6
:1054D0004FF0FF3070474FF00000704770B500F09C
:1054E00017F900BF4992248000207047F0E710F0C0
:1054F000004248BF4042B0FA80F310FA03F10AD0EC
:10550000C3F11D0303F580634FEA415002EB0352E0
:1055100002EBD12170474FF000007047B0FA80F3E2
:1055200010FA03F10AD0C3F11D0303F580634FEABB
:1055300041504FEA035202EBD12170474FF0000077
:105540007047000051EA030C17D41CF5801F58BFA8
:10555000BCF5801F00F10680994218BF704708BF54
:105560009042704707D711F5801F58BF13F5801F71
:1055700019D499427047894270471CF5801F08D59D
:10558000BCF5801FF7D58B4218BF704708BF824219
:1055900070474FF4001C1CEB410F38BF1CEB430F4E
:1055A00001D28B42704770B500F0B2F892244900E6
:1055B0004FF000514FF08053FFF708BEDFF848C1AD
:1055C00070B51CEA111E1EBF1CEA13159EEA0C0FD3
:1055D00095EA0C0F00F06F8081EA030423EA4C1374
:1055E0004EEAD47E21EA4C1141F4801143F4801339
:1055F000AE44A1FB024CA0FB0365AEF17F7E3619E1
:1056000055EB0C05A1FB034C4CF10003A0FB021C65
:1056100016EB0C06654153F10003094218BF46F032
:10562000010613F4007F0BD14FEA03314FEA053036
:10563000340341EA155140EA16506FF003020AE0C4
:105640004FEAC3214FEAC520F40241EA555140EA2E
:1056500056506FF0020202EB2E4201EB025585EA32
:10566000CE710AD05FEA440C18BF24F0004450F118
:10567000000041F1000120EAD47040F2FE7C624556
:1056800000D270BDA84214BF4FF080444FF0404498
:10569000002E08BF0024BEF1806FA8BFA1F1C04159
:1056A000BDE8704080F282804FF0000001F1C041FF
:1056B00001F0004170479EEA0C0F0CEA131518BF69
:1056C00095EA0C0F06D04FF0000081EA030E0EF0B1
:1056D000004170BD00F01CF88900013E00F007B8E1
:1056E00000F009B84FEA430C5FEA5C5C08D081EA3D
:1056F000030100F05BB84FEA410C5FEA5C5CF6D155
:105700004FF00000014970470000FF070000F87FDC
:105710000EF1020E2EF0030E5EF8046B364205D435
:10572000012A43EB030515F5001F12D8012841EBB0
:10573000010C1CF5001F0CD80ED14FEAD17C15F5D9
:10574000001F0CEB4C0C0CF1020C08BF4CEBD37C93
:1057500004E04FF0080C01E04FEAD37C0CEB4C0561
:1057600026FA05F606F00706B6F1040C06D20EEB93
:10577000860CBDE870404CF0010C6047DFE80CF08F
:10578000090B02024FF000414FF00000A1F500218B
:1057900070BD19461046012851EB010418BFD4F51D
:1057A000001484BF002001F0004170BD0808A0F57E
:1057B00000114FEA3101704753EA010C17D41CF570
:1057C000801F58BFBCF5801F00F106808B4218BFB8
:1057D000704708BF8242704707D713F5801F58BF34
:1057E00011F5801F19D48B4270479B4270471CF5FE
:1057F000801F08D5BCF5801FF7D5994218BF7047A8
:1058000008BF904270474FF4001C1CEB430F38BF99
:105810001CEB410F01D2994270470FB40CBC03BC82
:10582000FFF7C1BE91EA030F10B581F000413FF5CB
:105830002DAC83F0004300F009B8000010B591EAE8
:10584000030F48BF83F000433FF520AC841A71EB8F
:10585000030C07D212198CF0004C43EB0C03001B15
:1058600061EB0C01DFF8A4E14FEA1154A4EB135CE7
:105870001EEA430F18BF9EEA445F00F0B08023EA9F
:105880006E03524221EA0451C3EB6E0338BF5B1E24
:10589000DCF1200E25D322FA0CFE10EB0E0043FAA9
:1058A0000CFE41EB0E01CCF1200E03FA0EFE10EBC4
:1058B0000E0051F10001CCF1200E29D412FA0EF2A3
:1058C00001EB0451BDE8104058BF7047401C1CBF9D
:1058D000B2F1004F704700280CBF491C20F00100B6
:1058E000704712EB020E43EB030218BF4FF0010E9C
:1058F0004EEA4202ACF1200CDCF11E0E54D943FA00
:105900000CFE10EB0E0051F1FF31CCF11E0ED5D57F
:105910000EF1010E12FA0EFE404141EB010101EBC6
:10592000445C5FEA5C5C10D910EBDE7001EB045163
:1059300038BFBEF1004FBDE8104018BF70470028C7
:105940000CBF491C20F00100704730D24FEAD42C24
:1059500011F5001124F400641BD0B1FA81F20B3A66
:10596000A41AA41ED2F12003914030FA03F3194384
:10597000904001EBCC71002C01EB0451BDE81040CC
:10598000A8BF704701F1C0414FF0000001F0004195
:105990007047B0FA80F310FA03F100D110BDE41A99
:1059A000173C4805C90AE4E701EB045110BD491052
:1059B00001EB0451BDE810404FEA300002E04FF027
:1059C000000170474A0008BF0042F8D0B2F5001F3E
:1059D00028BF704701F000414FF0000070479EEA79
:1059E000445F07D011EA5E0FBDE8104004BF0021FC
:1059F00000207047BDE8104070B5FFF789FE00BF7A
:105A000040DFF63E83F00041104670470000E0FFA3
:105A100043004FEAD30C4FEA3C0C43401FBF400702
:105A20000CF1605113F0FE4F70471CF0006F03D172
:105A300000200CF0004170470CF0004343EA507026
:105A400010B540EACC0000F00EF800BF0000009254
:105A50004FEA0001FFF7AABE4FF000414FF00000EF
:105A6000A1F5002170470EF1020E2EF0030E5EF834
:105A7000044B244204D44FEA4102B2F17F4F11D8C3
:105A80004FEA4003B3F17F4F0CD80ED14FEAD07CE0
:105A9000B2F17F4F0CEB4C0C0CF1020C08BF4CEB3D
:105AA000D17C04E04FF0080C01E04FEAD17C0CEB14
:105AB0004C0324FA03F404F00704B4F1040C06D2F6
:105AC0000EEB840CBDE810404CF0010C6047DFE8A1
:105AD0000CF0070802024FF00040A0F5800010BD56
